:1000000012C019C018C017C016C015C014C013C044
:1000100012C011C010C00FC00EC00DC00CC00BC06C
:100020000AC009C008C011241FBECFE5D4E0DEBF5E
:10003000CDBF2FD98FCBE4CFCF93DF93CDB7DEB732
:1000400084E390E02FE3FC01208385E390E020E24D
:10005000FC0120830000DF91CF9108950F931F933F
:10006000CF93DF93CDB7DEB7CB54D1090FB6F89459
:10007000DEBF0FBECDBF9E01265B3F4FF9018083DF
:10008000CE01855B9F4FFC0160831A82198280E15B
:1000900097E29C838B83000083E390E0FC018081E6
:1000A000882F90E082709927892B49F48B819C815D
:1000B00001979C838B838B819C81892B69F7CE016F
:1000C000865B9F4FFC018081882F90E0880F991FED
:1000D000880F991F9F838E83CE01855B9F4FFC0104
:1000E0008081882F90E0880F991F880F991F99872A
:1000F00088878BE08D838D81282F30E081E090E030
:1001000002C0880F991F2A95E2F79C018E819F817A
:10011000822393239927892B51F085E390E025E3EF
:1001200030E0F90120812860FC01208309C085E3CB
:1001300090E025E330E0F9012081277FFC01208356
:100140008D81282F30E081E090E002C0880F991F58
:100150002A95E2F79C018885998582239323992724
:10016000892B51F085E390E025E330E0F90120810F
:100170002460FC01208309C085E390E025E330E0A2
:10018000F90120812B7FFC01208383E390E0FC01B7
:100190008081882F90E082709927892B89F08D814A
:1001A000282F30E081E090E002C0880F991F2A9547
:1001B000E2F79C0189819A81822B932B9A83898310
:1001C00085E390E025E330E0F90120812061FC0126
:1001D000208380E090E0A0E8BFE38A879B87AC871C
:1001E000BD872BEA3AEA4AE250E46A857B858C8532
:1001F0009D8545DADC01CB018EA79FA7A8ABB9ABE3
:100200008A859B85AC85BD859C01AD01BC01CD0176
:10021000BAD8DC01CB018AAB9BABACABBDAB20E069
:1002200030E040E85FE36EA57FA588A999A914D9BD
:1002300088231CF481E08EABEEC020E03FEF4FE757
:1002400057E46AA97BA98CA99DA915DA18160CF0A8
:10025000A7C020E030E04AE754E46A857B858C85BE
:100260009D85FED8DC01CB018FAB98AFA9AFBAAFAB
:1002700020E030E04AEF54E46FA978AD89AD9AAD43
:10028000FED9DC01CB018BAF9CAFADAFBEAF20E0A0
:1002900030E040E85FE36BAD7CAD8DAD9EADDCD86A
:1002A000882344F421E030E0CE01CF96FC01318375
:1002B00020835BC020E03FEF4FE757E46BAD7CADA0
:1002C0008DAD9EADD8D918160CF042C020E030E0BC
:1002D00040E251E46FA978AD89AD9AADD0D9DC0187
:1002E000CB01BC01CD0125D9DC01CB019E01215CF4
:1002F0003F4FF9019183808323C0CE018F5B9F4FD5
:1003000028EC30E0FC0131832083CE018F5B9F4FCE
:10031000FC01808191810197F1F79E012F5B3F4F96
:10032000F90191838083CE01CF96FC018081918178
:100330009C0121503109CE01CF96FC0131832083ED
:10034000CE01CF96FC0180819181892BB1F663C0EB
:100350006BAD7CAD8DAD9EADECD8DC01CB019E01CB
:10036000215C3F4FF90191838083CE018D5B9F4FCC
:100370009E01215C3F4FF90120813181FC013183D5
:100380002083CE018D5B9F4FFC018081918101977D
:10039000F1F79E012D5B3F4FF901918380833BC0B4
:1003A00020E030E04FE753E46EA57FA588A999A926
:1003B00062D9181644F58E010B5B1F4F6AA97BA901
:1003C0008CA99DA9B6D8DC01CB01F801918380836B
:1003D000CE01895B9F4F9E012B5B3F4FF90120812E
:1003E0003181FC0131832083CE01895B9F4FFC0169
:1003F000808191810197F1F79E01295B3F4FF901BF
:10040000918380831BC06EA57FA588A999A991D8E7
:10041000DC01CB018EABCE01875B9F4F2EA9FC0187
:100420002083CE01875B9F4FFC018081282F2A9576
:10043000F1F7CE01875B9F4FFC01208385E390E0BD
:1004400025E330E0F90120812F7EFC01208380E04C
:1004500090E0A0E8BFE38E879F87A88BB98B2BEA3B
:100460003AEA4AE250E46E857F858889998907D9FE
:10047000DC01CB018A8B9B8BAC8BBD8B8E859F85E2
:10048000A889B9899C01AD01BC01CD017CD7DC01F3
:10049000CB018E8B9F8BA88FB98F20E030E040E896
:1004A0005FE36A897B898C899D89D6D788231CF470
:1004B00081E08A8FA7C020E03FEF4FE757E46E89C5
:1004C0007F89888D998DD7D818160CF074C020E0DC
:1004D00030E04AE754E46E857F8588899989C0D7E2
:1004E000DC01CB018B8F9C8FAD8FBE8F20E030E085
:1004F0004AEF54E46B8D7C8D8D8D9E8DC0D8DC01D0
:10050000CB018F8F98A3A9A3BAA320E030E040E8E5
:100510005FE36F8D78A189A19AA19ED788232CF4DF
:1005200081E090E09CA38BA33BC020E03FEF4FE72E
:1005300057E46F8D78A189A19AA19DD818163CF532
:1005400020E030E040E251E46B8D7C8D8D8D9E8DFE
:1005500096D8DC01CB01BC01CD01EBD7DC01CB018E
:100560009CA38BA30FC088EC90E09EA38DA38DA1CC
:100570009EA10197F1F79EA38DA38BA19CA101974A
:100580009CA38BA38BA19CA1892B69F73BC06F8D8A
:1005900078A189A19AA1CDD7DC01CB019CA38BA323
:1005A0008BA19CA198A78FA38FA198A50197F1F784
:1005B00098A78FA327C020E030E04FE753E46A8973
:1005C0007B898C899D8957D81816A4F46E897F89F8
:1005D000888D998DAED7DC01CB019AA789A789A513
:1005E0009AA59CA78BA78BA59CA50197F1F79CA723
:1005F0008BA70EC06A897B898C899D899AD7DC017B
:10060000CB018A8F8A8D8DA78DA58A95F1F78DA74D
:100610008D8181508D836FCDCF93DF9300D000D03B
:10062000CDB7DEB71A82198281E08B831BC06CE4E0
:1006300088E014DD6CE08B8111DD68E680E00EDD82
:100640006CE680E00BDD8C8389819A81382F22272C
:100650008C81882F90E0820F931F9A8389838B81EE
:100660008F5F8B838B81833010F389819A810F9008
:100670000F900F900F90DF91CF910895CF93DF935C
:1006800000D000D000D0CDB7DEB79A8389837C83B9
:100690006B835E834D836CE484E0E0DC68E680E09D
:1006A000DDDC6CE680E0DADC282F89819A81FC01B0
:1006B00020836CE484E0D2DC6AE780E0CFDC6EE784
:1006C00080E0CCDC282F8B819C81FC0120836CE4B2
:1006D00084E0C4DC6AE680E0C1DC6EE680E0BEDC7B
:1006E000282F8D819E81FC012083000026960FB665
:1006F000F894DEBF0FBECDBFDF91CF910895CF93A9
:10070000DF9300D01F92CDB7DEB789836A834B8316
:100710006CE480E4A3DC6CE28981A0DC64E680E028
:100720009DDC6CE680E09ADC6CE480E497DC6CE2B3
:100730008A8194DC64E780E091DC6CE780E08EDC09
:100740006CE480E48BDC6CE28B8188DC66E680E024
:1007500085DC6EE680E082DC00000F900F900F9049
:10076000DF91CF9108950F931F93CF93DF93CDB770
:10077000DEB7C558D1090FB6F894DEBF0FBECDBFA6
:1007800085E390E020E2FC01208384E390E024E311
:1007900030E0F90120812260FC01208380E090E0BC
:1007A000A8ECB1E489839A83AB83BC838E01095999
:1007B0001F4F2BEA3AEA4AE250E469817A818B8141
:1007C0009C815DD7DC01CB01F80180839183A283FA
:1007D000B3838E0105591F4F89819A81AB81BC81FA
:1007E0009C01AD01BC01CD01CED5DC01CB01F801EE
:1007F00080839183A283B383CE0189599F4F20E0E8
:1008000030E040E85FE3FC01608171818281938187
:1008100023D688233CF4CE0181599F4F21E0FC016F
:10082000208321C1CE0185599F4F20E03FEF4FE744
:1008300057E4FC0160817181828193811CD7181675
:100840000CF0C6C020E030E04AE754E469817A81C8
:100850008B819C8105D6DC01CB019E0120593F4F45
:10086000F90180839183A283B3838E010C581F4FBB
:10087000CE0180599F4F20E030E04AEF54E4FC0164
:100880006081718182819381FAD6DC01CB01F8010C
:1008900080839183A283B383CE018C589F4F20E045
:1008A00030E040E85FE3FC016081718182819381E7
:1008B000D3D588234CF4CE0188589F4F21E030E0F7
:1008C000FC013183208369C0CE018C589F4F20E00A
:1008D0003FEF4FE757E4FC01608171818281938192
:1008E000CAD618160CF048C0CE0180599F4F20E0A0
:1008F00030E040E251E4FC016081718182819381AA
:10090000BED6DC01CB018E0108581F4FBC01CD01C2
:1009100010D6DC01CB01F8019183808324C0CE0185
:1009200086589F4F28EC30E0FC0131832083CE01B4
:1009300086589F4FFC01808191810197F1F79E01BC
:1009400026583F4FF90191838083CE0188589F4FED
:100950009E0128583F4FF9012081318121503109F2
:10096000FC0131832083CE0188589F4FFC01808198
:100970009181892BA1F677C08E0108581F4FCE01B7
:100980008C589F4FFC016081718182819381D1D508
:10099000DC01CB01F80191838083CE0184589F4F05
:1009A0009E0128583F4FF90120813181FC0131839C
:1009B0002083CE0184589F4FFC0180819181019753
:1009C000F1F79E0124583F4FF901918380834BC07A
:1009D000CE0189599F4F20E030E04FE753E4FC01FE
:1009E000608171818281938146D6181664F58E01EB
:1009F00002581F4FCE0185599F4FFC0160817181C4
:100A00008281938196D5DC01CB01F80191838083AB
:100A1000CE0180589F4F9E0122583F4FF9012081FF
:100A20003181FC0131832083CE0180589F4FFC012E
:100A3000808191810197F1F79E0120583F4FF90184
:100A40009183808327C08E0101591F4FCE018959A0
:100A50009F4FFC0160817181828193816AD5DC01A5
:100A6000CB01F8018083CE018E579F4F9E01215903
:100A70003F4FF9012081FC012083CE018E579F4F0B
:100A8000FC018081282F2A95F1F7CE018E579F4FC8
:100A9000FC01208385E390E021E2FC01208380E0DB
:100AA00090E0A8ECB1E48D839E83AF83B8878E017C
:100AB000055B1F4F2BEA3AEA4AE250E46D817E81E2
:100AC0008F819885DCD5DC01CB01F801808391838F
:100AD000A283B3838E01015B1F4F8D819E81AF8105
:100AE000B8859C01AD01BC01CD014DD4DC01CB0129
:100AF000F80180839183A283B383CE01855B9F4FEE
:100B000020E030E040E85FE3FC0160817181828198
:100B10009381A2D488233CF4CE018D5A9F4F21E0CB
:100B2000FC01208321C1CE01815B9F4F20E03FEF7C
:100B30004FE757E4FC0160817181828193819BD5ED
:100B400018160CF0C6C020E030E04AE754E46D818E
:100B50007E818F81988584D4DC01CB019E012C5A43
:100B60003F4FF90180839183A283B3838E01085A9A
:100B70001F4FCE018C5A9F4F20E030E04AEF54E4E3
:100B8000FC01608171818281938179D5DC01CB0187
:100B9000F80180839183A283B383CE01885A9F4F4B
:100BA00020E030E040E85FE3FC01608171818281F8
:100BB000938152D488234CF4CE01845A9F4F21E074
:100BC00030E0FC013183208369C0CE01885A9F4FF9
:100BD00020E03FEF4FE757E4FC01608171818281A3
:100BE000938149D518160CF048C0CE018C5A9F4FFE
:100BF00020E030E040E251E4FC01608171818281BB
:100C000093813DD5DC01CB018E01045A1F4FBC01FD
:100C1000CD018FD4DC01CB01F8019183808324C006
:100C2000CE01825A9F4F28EC30E0FC0131832083B3
:100C3000CE01825A9F4FFC01808191810197F1F78B
:100C40009E01225A3F4FF90191838083CE01845A3D
:100C50009F4F9E01245A3F4FF9012081318121503D
:100C60003109FC0131832083CE01845A9F4FFC015E
:100C700080819181892BA1F677C08E01045A1F4F84
:100C8000CE01885A9F4FFC016081718182819381DE
:100C900050D4DC01CB01F80191838083CE01805ACE
:100CA0009F4F9E01245A3F4FF90120813181FC0161
:100CB00031832083CE01805A9F4FFC018081918136
:100CC0000197F1F79E01205A3F4FF90191838083EC
:100CD0004BC0CE01855B9F4F20E030E04FE753E4EF
:100CE000FC016081718182819381C5D4181664F5FD
:100CF0008E010E591F4FCE01815B9F4FFC01608119
:100D000071818281938115D4DC01CB01F80191833B
:100D10008083CE018C599F4F9E012E593F4FF90180
:100D200020813181FC0131832083CE018C599F4F7A
:100D3000FC01808191810197F1F79E012C593F4F71
:100D4000F9019183808327C08E010D5A1F4FCE0178
:100D5000855B9F4FFC016081718182819381E9D322
:100D6000DC01CB01F8018083CE018A599F4F9E019F
:100D70002D5A3F4FF9012081FC012083CE018A5971
:100D80009F4FFC018081282F2A95F1F7CE018A59C7
:100D90009F4FFC01208385E390E021E0FC0120834C
:100DA00080E090E0A8ECB1E489879A87AB87BC87A4
:100DB0002BEA3AEA4AE250E469857A858B859C857C
:100DC0005ED4DC01CB018FA798ABA9ABBAAB898508
:100DD0009A85AB85BC859C01AD01BC01CD01D3D208
:100DE000DC01CB018BAB9CABADABBEAB20E030E00C
:100DF00040E85FE36FA578A989A99AA92DD3882334
:100E00001CF481E08FABF1C020E03FEF4FE757E4E7
:100E10006BA97CA98DA99EA92ED418160CF0AAC086
:100E200020E030E04AE754E469857A858B859C852B
:100E300017D3DC01CB0188AF99AFAAAFBBAF20E0DD
:100E400030E04AEF54E468AD79AD8AAD9BAD17D47C
:100E5000DC01CB018CAF9DAFAEAFBFAF20E030E087
:100E600040E85FE36CAD7DAD8EAD9FADF5D28823DC
:100E70004CF4CE01805C9F4F21E030E0FC013183D7
:100E800020835DC020E03FEF4FE757E46CAD7DADC0
:100E90008EAD9FADF0D318160CF044C020E030E0CA
:100EA00040E251E468AD79AD8AAD9BADE8D3DC0199
:100EB000CB018E01005C1F4FBC01CD013AD3DC0198
:100EC000CB01F8019183808324C0CE018E5B9F4FBC
:100ED00028EC30E0FC0131832083CE018E5B9F4FF4
:100EE000FC01808191810197F1F79E012E5B3F4FBC
:100EF000F90191838083CE01805C9F4F9E01205C2D
:100F00003F4FF9012081318121503109FC013183AA
:100F10002083CE01805C9F4FFC0180819181892BD1
:100F2000A1F663C08E01005C1F4F6CAD7DAD8EAD30
:100F30009FADFFD2DC01CB01F80191838083CE010C
:100F40008C5B9F4F9E01205C3F4FF90120813181D6
:100F5000FC0131832083CE018C5B9F4FFC0180819B
:100F600091810197F1F79E012C5B3F4FF90191832D
:100F700080833BC020E030E04FE753E46FA578A9C1
:100F800089A99AA978D3181644F58E010A5B1F4FD8
:100F90006BA97CA98DA99EA9CCD2DC01CB01F8015B
:100FA00091838083CE01885B9F4F9E012A5B3F4FD8
:100FB000F90120813181FC0131832083CE01885BDE
:100FC0009F4FFC01808191810197F1F79E01285B81
:100FD0003F4FF901918380831BC06FA578A989A930
:100FE0009AA9A7D2DC01CB018FABCE01865B9F4FC4
:100FF0002FA9FC012083CE01865B9F4FFC018081DD
:10100000282F2A95F1F7CE01865B9F4FFC012083A4
:1010100084E390E024E330E0F90120812D7FFC019E
:10102000208380E090E0A6E9B3E48F87988BA98BBA
:10103000BA8B2BEA3AEA4AE250E46F8578898989CB
:101040009A891DD3DC01CB018B8B9C8BAD8BBE8B26
:101050008F859889A989BA899C01AD01BC01CD0110
:1010600092D1DC01CB018F8B988FA98FBA8F20E0B2
:1010700030E040E85FE36B897C898D899E89ECD103
:1010800088231CF481E08B8FA7C020E03FEF4FE75F
:1010900057E46F89788D898D9A8DEDD218160CF0F2
:1010A00074C020E030E04AE754E46F85788989898C
:1010B0009A89D6D1DC01CB018C8F9D8FAE8FBF8FEB
:1010C00020E030E04AEF54E46C8D7D8D8E8D9F8D55
:1010D000D6D2DC01CB0188A399A3AAA3BBA320E0AD
:1010E00030E040E85FE368A179A18AA19BA1B4D177
:1010F00088232CF481E090E09DA38CA33BC020E0EA
:101100003FEF4FE757E468A179A18AA19BA1B3D231
:1011100018163CF520E030E040E251E46C8D7D8D06
:101120008E8D9F8DACD2DC01CB01BC01CD0101D2F3
:10113000DC01CB019DA38CA30FC088EC90E09FA3A2
:101140008EA38EA19FA10197F1F79FA38EA38CA1DF
:101150009DA101979DA38CA38CA19DA1892B69F7CB
:101160003BC068A179A18AA19BA1E3D1DC01CB019D
:101170009DA38CA38CA19DA199A788A788A599A5BB
:101180000197F1F799A788A727C020E030E04FE743
:1011900053E46B897C898D899E896DD21816A4F4DD
:1011A0006F89788D898D9A8DC4D1DC01CB019BA785
:1011B0008AA78AA59BA59DA78CA78CA59DA501970D
:1011C000F1F79DA78CA70EC06B897C898D899E89BC
:1011D000B0D1DC01CB018B8F8B8D8EA78EA58A952C
:1011E000F1F78EA719DA9E878D87AE014B575F4FB7
:1011F0009E012C573F4FCE018D579F4FB9013EDACC
:101200008D859E858730904929F440E06FEF8AE60E
:1012100076DA22C08D859E858B309149C9F08D8507
:101220009E8587309249A1F08D859E858C309349AB
:1012300079F08D859E858830914951F08D859E8508
:101240008630924929F08D859E858B30934921F413
:101250004FEF6FED82E653DAAE014B575F4F9E01C1
:101260002C573F4FCE018D579F4FB90107DA85E3C9
:1012700090E020E2FC0120830000CB57DF4F0FB647
:10128000F894DEBF0FBECDBFDF91CF911F910F91BC
:101290000895CF93DF93CDB7DEB72E970FB6F894AE
:1012A000DEBF0FBECDBFC8D65EDA80E090E0AAE711
:1012B000B4E489839A83AB83BC8320E030E04AEFB7
:1012C00054E469817A818B819C81D9D1DC01CB0185
:1012D0008D839E83AF83B88720E030E040E85FE3F2
:1012E0006D817E818F819885B7D088232CF481E031
:1012F00090E09A8789873BC020E03FEF4FE757E4B3
:101300006D817E818F819885B6D118163CF520E0DD
:1013100030E040E251E469817A818B819C81AFD1D8
:10132000DC01CB01BC01CD0104D1DC01CB019A87EA
:1013300089870FC088EC90E09C878B878B859C8584
:101340000197F1F79C878B8789859A8501979A8702
:10135000898789859A85892B69F713C06D817E817C
:101360008F819885E6D0DC01CB019A8789878985B2
:101370009A859E878D878D859E850197F1F79E873B
:101380008D8792CF5058BB27AA270ED039C12AD1BA
:1013900030F02FD120F031F49F3F11F41EF41FC123
:1013A0000EF4E095E7FB15C1E92F3BD180F3BA17A6
:1013B000620773078407950718F099F4C6F553C1BF
:1013C0000EF4E0950B2EBA2FA02D062E622F202DA5
:1013D000072E732F302D082E842F402D092E952F88
:1013E000502DFF27591B99F0593F50F4503E68F19A
:1013F0001A16F040A22F232F342F4427585FF3CF23
:10140000469537952795A795F0405395C9F77EF4F3
:101410001F16BA0B620B730B840BBAF09150A1F03C
:10142000FF0FBB1F661F771F881FC2F70EC0BA0FC2
:10143000621F731F841F48F4879577956795B7954A
:10144000F7959E3F08F0AECF9395880F08F0992747
:10145000EE0F97958795089598D008F481E0089548
:101460000CD0CEC0C6D040F0BDD030F021F45F3FEC
:1014700019F0AFC05111F8C0B2C0D3D098F399237E
:10148000C9F35523B1F3951B550BBB27AA27621748
:101490007307840738F09F5F5F4F220F331F441F8D
:1014A000AA1FA9F334D00E2E3AF0E0E831D09150C3
:1014B0005040E695001CCAF72AD0FE2F28D0660FB0
:1014C000771F881FBB1F261737074807AB07B0E8F1
:1014D00009F0BB0B802D6E2F7F2FFF2793585F4F96
:1014E0002AF09E3F510568F074C0BEC05F3FECF328
:1014F000983EDCF3869577956795B795F7959F5F4E
:10150000C9F7880F911D9695879597F90895E1E0A1
:10151000660F771F881FBB1F621773078407BA0700
:1015200020F0621B730B840BBA0BEE1F88F7E0955B
:1015300008957FD088F09F5790F0B92F9927B75121
:10154000A0F0D1F0660F771F881F991F1AF0BA9587
:10155000C9F712C0B13081F086D0B1E0089583C0E0
:10156000672F782F8827B85F39F0B93FCCF386957D
:1015700077956795B395D9F73EF4909580957095DA
:1015800061957F4F8F4F9F4F0895990F0008550F1A
:10159000AA0BE0E8FEEF16161706E807F907C0F0F9
:1015A00012161306E407F50798F0621B730B840B01
:1015B000950B39F40A2661F0232B242B252B21F4DB
:1015C00008950A2609F4A140A6958FEF811D811D7B
:1015D000089597F99F6780E870E060E008959FEFB5
:1015E00080EC089500240A941616170618060906BA
:1015F000089500240A941216130614060506089589
:10160000092E0394000C11F4882352F0BB0F40F410
:10161000BF2B11F460FF04C06F5F7F4F8F4F9F4F50
:10162000089557FD9058440F551F59F05F3F71F0D2
:101630004795880F97FB991F61F09F3F79F0879539
:101640000895121613061406551FF2CF4695F1DFC2
:1016500008C0161617061806991FF1CF8695710552
:10166000610508940895E894BB2766277727862F9D
:10167000972F97F9089589DF08F48FEF08950AD01E
:10168000BFCFB0DF28F0B5DF18F0952309F0A1CF68
:10169000A6CFEACFC6DFA8F39923D9F35523C9F320
:1016A000950F50E0551FAA27EE27FF27BB270024E0
:1016B0000894679520F4E20FF31FB41F0A1E220F4F
:1016C000331F441FAA1F6695A9F7779530F4F30FCF
:1016D000B41F0A1E121E08F46395330F441FAA1F7D
:1016E000221F769599F7879520F4B40F0A1E121ED3
:1016F000631F440FAA1F221F331F8695A9F7862F49
:10170000712D602D11249F5750408AF0E1F08823FD
:101710004AF0EE0FFF1FBB1F661F771F881F9150F7
:101720005040A9F79E3F510570F053CF9DCF5F3FCA
:10173000ECF3983EDCF3869577956795B795F7952A
:10174000E7959F5FC1F7FE2B880F911D96958795B2
:0817500097F90895F894FFCF0A
:00000001FF
